{
  "_format": "hh-sol-artifact-1",
  "contractName": "VaccineTracker",
  "sourceName": "contracts/VaccineTracker.sol",
  "abi": [
    {
      "inputs": [
        {
          "internalType": "uint256",
          "name": "_ownerId",
          "type": "uint256"
        },
        {
          "internalType": "string",
          "name": "_vaccineName",
          "type": "string"
        },
        {
          "internalType": "string",
          "name": "_serialNumber",
          "type": "string"
        },
        {
          "internalType": "uint256",
          "name": "_vaccineCost",
          "type": "uint256"
        }
      ],
      "name": "addVaccine",
      "outputs": [
        {
          "internalType": "uint256",
          "name": "",
          "type": "uint256"
        }
      ],
      "stateMutability": "nonpayable",
      "type": "function"
    },
    {
      "inputs": [],
      "name": "owner_id",
      "outputs": [
        {
          "internalType": "uint256",
          "name": "",
          "type": "uint256"
        }
      ],
      "stateMutability": "view",
      "type": "function"
    },
    {
      "inputs": [],
      "name": "participant_id",
      "outputs": [
        {
          "internalType": "uint256",
          "name": "",
          "type": "uint256"
        }
      ],
      "stateMutability": "view",
      "type": "function"
    },
    {
      "inputs": [
        {
          "internalType": "uint256",
          "name": "",
          "type": "uint256"
        }
      ],
      "name": "participants",
      "outputs": [
        {
          "internalType": "string",
          "name": "userName",
          "type": "string"
        },
        {
          "internalType": "address",
          "name": "participantAddress",
          "type": "address"
        },
        {
          "internalType": "string",
          "name": "participantType",
          "type": "string"
        }
      ],
      "stateMutability": "view",
      "type": "function"
    },
    {
      "inputs": [
        {
          "internalType": "string",
          "name": "_username",
          "type": "string"
        },
        {
          "internalType": "address",
          "name": "_participantAddress",
          "type": "address"
        },
        {
          "internalType": "string",
          "name": "_participantType",
          "type": "string"
        }
      ],
      "name": "registerParticipant",
      "outputs": [
        {
          "internalType": "uint256",
          "name": "",
          "type": "uint256"
        }
      ],
      "stateMutability": "nonpayable",
      "type": "function"
    },
    {
      "inputs": [],
      "name": "vaccineStatus",
      "outputs": [
        {
          "internalType": "enum VaccineTracker.Status",
          "name": "",
          "type": "uint8"
        }
      ],
      "stateMutability": "view",
      "type": "function"
    },
    {
      "inputs": [],
      "name": "vaccine_id",
      "outputs": [
        {
          "internalType": "uint256",
          "name": "",
          "type": "uint256"
        }
      ],
      "stateMutability": "view",
      "type": "function"
    },
    {
      "inputs": [
        {
          "internalType": "uint256",
          "name": "",
          "type": "uint256"
        }
      ],
      "name": "vaccines",
      "outputs": [
        {
          "internalType": "string",
          "name": "vaccineName",
          "type": "string"
        },
        {
          "internalType": "string",
          "name": "serialNumber",
          "type": "string"
        },
        {
          "internalType": "address",
          "name": "vaccineOwner",
          "type": "address"
        },
        {
          "internalType": "uint256",
          "name": "cost",
          "type": "uint256"
        },
        {
          "internalType": "uint256",
          "name": "mfgTimeStamp",
          "type": "uint256"
        }
      ],
      "stateMutability": "view",
      "type": "function"
    },
    {
      "inputs": [
        {
          "internalType": "uint256",
          "name": "_participantId",
          "type": "uint256"
        }
      ],
      "name": "viewParticipant",
      "outputs": [
        {
          "internalType": "string",
          "name": "",
          "type": "string"
        },
        {
          "internalType": "address",
          "name": "",
          "type": "address"
        },
        {
          "internalType": "string",
          "name": "",
          "type": "string"
        }
      ],
      "stateMutability": "view",
      "type": "function"
    },
    {
      "inputs": [
        {
          "internalType": "uint256",
          "name": "_vaccine_id",
          "type": "uint256"
        }
      ],
      "name": "viewVaccine",
      "outputs": [
        {
          "internalType": "string",
          "name": "",
          "type": "string"
        },
        {
          "internalType": "string",
          "name": "",
          "type": "string"
        },
        {
          "internalType": "address",
          "name": "",
          "type": "address"
        },
        {
          "internalType": "uint256",
          "name": "",
          "type": "uint256"
        },
        {
          "internalType": "uint256",
          "name": "",
          "type": "uint256"
        }
      ],
      "stateMutability": "view",
      "type": "function"
    }
  ],
  "bytecode": "0x6080604052600080556000600155600060025534801561001e57600080fd5b5061117e8061002e6000396000f3fe608060405234801561001057600080fd5b506004361061009e5760003560e01c806335c1d3491161006657806335c1d3491461018b5780635c7e6330146101bd578063770dfd4e146101db5780638f5ebf711461020b578063fc2da910146102295761009e565b806307a14228146100a357806309645e8f146100d35780630b454ae2146100f15780631797a85614610123578063300e88bd14610157575b600080fd5b6100bd60048036038101906100b89190610ce9565b610247565b6040516100ca9190610d8d565b60405180910390f35b6100db610319565b6040516100e89190610e1f565b60405180910390f35b61010b60048036038101906101069190610e66565b61032c565b60405161011a93929190610f2a565b60405180910390f35b61013d60048036038101906101389190610e66565b6104ba565b60405161014e959493929190610f6f565b60405180910390f35b610171600480360381019061016c9190610e66565b61067e565b604051610182959493929190610f6f565b60405180910390f35b6101a560048036038101906101a09190610e66565b6107e4565b6040516101b493929190610f2a565b60405180910390f35b6101c561093e565b6040516101d29190610d8d565b60405180910390f35b6101f560048036038101906101f09190610fd0565b610944565b6040516102029190610d8d565b60405180910390f35b610213610a82565b6040516102209190610d8d565b60405180910390f35b610231610a88565b60405161023e9190610d8d565b60405180910390f35b6000806002600081548092919061025d9061109e565b9190505590508460056000838152602001908152602001600020600001908051906020019061028d929190610a8e565b50836005600083815260200190815260200160002060010160006101000a81548173ffffffffffffffffffffffffffffffffffffffff021916908373ffffffffffffffffffffffffffffffffffffffff1602179055508260056000838152602001908152602001600020600201908051906020019061030d929190610a8e565b50809150509392505050565b600360009054906101000a900460ff1681565b606060006060600560008581526020019081526020016000206000016005600086815260200190815260200160002060010160009054906101000a900473ffffffffffffffffffffffffffffffffffffffff16600560008781526020019081526020016000206002018280546103a190611116565b80601f01602080910402602001604051908101604052809291908181526020018280546103cd90611116565b801561041a5780601f106103ef5761010080835404028352916020019161041a565b820191906000526020600020905b8154815290600101906020018083116103fd57829003601f168201915b5050505050925080805461042d90611116565b80601f016020809104026020016040519081016040528092919081815260200182805461045990611116565b80156104a65780601f1061047b576101008083540402835291602001916104a6565b820191906000526020600020905b81548152906001019060200180831161048957829003601f168201915b505050505090509250925092509193909250565b606080600080600060046000878152602001908152602001600020600001600460008881526020019081526020016000206001016004600089815260200190815260200160002060020160009054906101000a900473ffffffffffffffffffffffffffffffffffffffff16600460008a815260200190815260200160002060030154600460008b81526020019081526020016000206004015484805461055f90611116565b80601f016020809104026020016040519081016040528092919081815260200182805461058b90611116565b80156105d85780601f106105ad576101008083540402835291602001916105d8565b820191906000526020600020905b8154815290600101906020018083116105bb57829003601f168201915b505050505094508380546105eb90611116565b80601f016020809104026020016040519081016040528092919081815260200182805461061790611116565b80156106645780601f1061063957610100808354040283529160200191610664565b820191906000526020600020905b81548152906001019060200180831161064757829003601f168201915b505050505093509450945094509450945091939590929450565b60046020528060005260406000206000915090508060000180546106a190611116565b80601f01602080910402602001604051908101604052809291908181526020018280546106cd90611116565b801561071a5780601f106106ef5761010080835404028352916020019161071a565b820191906000526020600020905b8154815290600101906020018083116106fd57829003601f168201915b50505050509080600101805461072f90611116565b80601f016020809104026020016040519081016040528092919081815260200182805461075b90611116565b80156107a85780601f1061077d576101008083540402835291602001916107a8565b820191906000526020600020905b81548152906001019060200180831161078b57829003601f168201915b5050505050908060020160009054906101000a900473ffffffffffffffffffffffffffffffffffffffff16908060030154908060040154905085565b600560205280600052604060002060009150905080600001805461080790611116565b80601f016020809104026020016040519081016040528092919081815260200182805461083390611116565b80156108805780601f1061085557610100808354040283529160200191610880565b820191906000526020600020905b81548152906001019060200180831161086357829003601f168201915b5050505050908060010160009054906101000a900473ffffffffffffffffffffffffffffffffffffffff16908060020180546108bb90611116565b80601f01602080910402602001604051908101604052809291908181526020018280546108e790611116565b80156109345780601f1061090957610100808354040283529160200191610934565b820191906000526020600020905b81548152906001019060200180831161091757829003601f168201915b5050505050905083565b60005481565b6000806000808154809291906109599061109e565b91905055905084600460008381526020019081526020016000206000019080519060200190610989929190610a8e565b50836004600083815260200190815260200160002060010190805190602001906109b4929190610a8e565b506005600087815260200190815260200160002060010160009054906101000a900473ffffffffffffffffffffffffffffffffffffffff166004600083815260200190815260200160002060020160006101000a81548173ffffffffffffffffffffffffffffffffffffffff021916908373ffffffffffffffffffffffffffffffffffffffff16021790555082600460008381526020019081526020016000206003018190555042600460008381526020019081526020016000206004018190555080915050949350505050565b60015481565b60025481565b828054610a9a90611116565b90600052602060002090601f016020900481019282610abc5760008555610b03565b82601f10610ad557805160ff1916838001178555610b03565b82800160010185558215610b03579182015b82811115610b02578251825591602001919060010190610ae7565b5b509050610b109190610b14565b5090565b5b80821115610b2d576000816000905550600101610b15565b5090565b6000604051905090565b600080fd5b600080fd5b600080fd5b600080fd5b6000601f19601f8301169050919050565b7f4e487b7100000000000000000000000000000000000000000000000000000000600052604160045260246000fd5b610b9882610b4f565b810181811067ffffffffffffffff82111715610bb757610bb6610b60565b5b80604052505050565b6000610bca610b31565b9050610bd68282610b8f565b919050565b600067ffffffffffffffff821115610bf657610bf5610b60565b5b610bff82610b4f565b9050602081019050919050565b82818337600083830152505050565b6000610c2e610c2984610bdb565b610bc0565b905082815260208101848484011115610c4a57610c49610b4a565b5b610c55848285610c0c565b509392505050565b600082601f830112610c7257610c71610b45565b5b8135610c82848260208601610c1b565b91505092915050565b600073ffffffffffffffffffffffffffffffffffffffff82169050919050565b6000610cb682610c8b565b9050919050565b610cc681610cab565b8114610cd157600080fd5b50565b600081359050610ce381610cbd565b92915050565b600080600060608486031215610d0257610d01610b3b565b5b600084013567ffffffffffffffff811115610d2057610d1f610b40565b5b610d2c86828701610c5d565b9350506020610d3d86828701610cd4565b925050604084013567ffffffffffffffff811115610d5e57610d5d610b40565b5b610d6a86828701610c5d565b9150509250925092565b6000819050919050565b610d8781610d74565b82525050565b6000602082019050610da26000830184610d7e565b92915050565b7f4e487b7100000000000000000000000000000000000000000000000000000000600052602160045260246000fd5b60068110610de857610de7610da8565b5b50565b6000819050610df982610dd7565b919050565b6000610e0982610deb565b9050919050565b610e1981610dfe565b82525050565b6000602082019050610e346000830184610e10565b92915050565b610e4381610d74565b8114610e4e57600080fd5b50565b600081359050610e6081610e3a565b92915050565b600060208284031215610e7c57610e7b610b3b565b5b6000610e8a84828501610e51565b91505092915050565b600081519050919050565b600082825260208201905092915050565b60005b83811015610ecd578082015181840152602081019050610eb2565b83811115610edc576000848401525b50505050565b6000610eed82610e93565b610ef78185610e9e565b9350610f07818560208601610eaf565b610f1081610b4f565b840191505092915050565b610f2481610cab565b82525050565b60006060820190508181036000830152610f448186610ee2565b9050610f536020830185610f1b565b8181036040830152610f658184610ee2565b9050949350505050565b600060a0820190508181036000830152610f898188610ee2565b90508181036020830152610f9d8187610ee2565b9050610fac6040830186610f1b565b610fb96060830185610d7e565b610fc66080830184610d7e565b9695505050505050565b60008060008060808587031215610fea57610fe9610b3b565b5b6000610ff887828801610e51565b945050602085013567ffffffffffffffff81111561101957611018610b40565b5b61102587828801610c5d565b935050604085013567ffffffffffffffff81111561104657611045610b40565b5b61105287828801610c5d565b925050606061106387828801610e51565b91505092959194509250565b7f4e487b7100000000000000000000000000000000000000000000000000000000600052601160045260246000fd5b60006110a982610d74565b91507fffffffffffffffffffffffffffffffffffffffffffffffffffffffffffffffff8214156110dc576110db61106f565b5b600182019050919050565b7f4e487b7100000000000000000000000000000000000000000000000000000000600052602260045260246000fd5b6000600282049050600182168061112e57607f821691505b60208210811415611142576111416110e7565b5b5091905056fea2646970667358221220e316705a9f2c814817bec852757f804016ba3238d9a74866e3d741771a9750d164736f6c63430008090033",
  "linkReferences": {},
  "deployedLinkReferences": {}
}