{
  "_format": "hh-sol-artifact-1",
  "contractName": "VaccineTracker",
  "sourceName": "contracts/VaccineTracker.sol",
  "abi": [
    {
      "inputs": [],
      "stateMutability": "nonpayable",
      "type": "constructor"
    },
    {
      "anonymous": false,
      "inputs": [
        {
          "indexed": false,
          "internalType": "enum VaccineTracker.location",
          "name": "",
          "type": "uint8"
        }
      ],
      "name": "changeGeoLocation",
      "type": "event"
    },
    {
      "anonymous": false,
      "inputs": [
        {
          "indexed": false,
          "internalType": "enum VaccineTracker.Status",
          "name": "",
          "type": "uint8"
        }
      ],
      "name": "changeVaccineStatus",
      "type": "event"
    },
    {
      "inputs": [
        {
          "internalType": "string",
          "name": "_vaccineName",
          "type": "string"
        },
        {
          "internalType": "string",
          "name": "_serialNumber",
          "type": "string"
        },
        {
          "internalType": "uint256",
          "name": "_vaccineCost",
          "type": "uint256"
        }
      ],
      "name": "addVaccine",
      "outputs": [
        {
          "internalType": "uint256",
          "name": "",
          "type": "uint256"
        }
      ],
      "stateMutability": "nonpayable",
      "type": "function"
    },
    {
      "inputs": [],
      "name": "currentgeoLocation",
      "outputs": [
        {
          "internalType": "enum VaccineTracker.Status",
          "name": "",
          "type": "uint8"
        },
        {
          "internalType": "enum VaccineTracker.location",
          "name": "",
          "type": "uint8"
        }
      ],
      "stateMutability": "view",
      "type": "function"
    },
    {
      "inputs": [],
      "name": "currentvaccineStatus",
      "outputs": [
        {
          "internalType": "enum VaccineTracker.Status",
          "name": "",
          "type": "uint8"
        }
      ],
      "stateMutability": "view",
      "type": "function"
    },
    {
      "inputs": [],
      "name": "defaultgeolocation",
      "outputs": [
        {
          "internalType": "enum VaccineTracker.location",
          "name": "",
          "type": "uint8"
        }
      ],
      "stateMutability": "view",
      "type": "function"
    },
    {
      "inputs": [
        {
          "internalType": "uint8",
          "name": "_status",
          "type": "uint8"
        }
      ],
      "name": "geoLocation",
      "outputs": [],
      "stateMutability": "nonpayable",
      "type": "function"
    },
    {
      "inputs": [],
      "name": "owner",
      "outputs": [
        {
          "internalType": "address",
          "name": "",
          "type": "address"
        }
      ],
      "stateMutability": "view",
      "type": "function"
    },
    {
      "inputs": [],
      "name": "participant_id",
      "outputs": [
        {
          "internalType": "uint256",
          "name": "",
          "type": "uint256"
        }
      ],
      "stateMutability": "view",
      "type": "function"
    },
    {
      "inputs": [
        {
          "internalType": "uint256",
          "name": "",
          "type": "uint256"
        }
      ],
      "name": "participants",
      "outputs": [
        {
          "internalType": "string",
          "name": "userName",
          "type": "string"
        },
        {
          "internalType": "address",
          "name": "participantAddress",
          "type": "address"
        },
        {
          "internalType": "string",
          "name": "participantType",
          "type": "string"
        }
      ],
      "stateMutability": "view",
      "type": "function"
    },
    {
      "inputs": [
        {
          "internalType": "string",
          "name": "_username",
          "type": "string"
        },
        {
          "internalType": "address",
          "name": "_participantAddress",
          "type": "address"
        },
        {
          "internalType": "string",
          "name": "_participantType",
          "type": "string"
        }
      ],
      "name": "registerParticipant",
      "outputs": [
        {
          "internalType": "uint256",
          "name": "",
          "type": "uint256"
        }
      ],
      "stateMutability": "nonpayable",
      "type": "function"
    },
    {
      "inputs": [
        {
          "internalType": "uint256",
          "name": "",
          "type": "uint256"
        }
      ],
      "name": "transit",
      "outputs": [
        {
          "internalType": "string",
          "name": "manufacturers",
          "type": "string"
        },
        {
          "internalType": "string",
          "name": "logistics",
          "type": "string"
        },
        {
          "internalType": "string",
          "name": "suppliers",
          "type": "string"
        },
        {
          "internalType": "string",
          "name": "distributer",
          "type": "string"
        },
        {
          "internalType": "string",
          "name": "hospitals",
          "type": "string"
        }
      ],
      "stateMutability": "view",
      "type": "function"
    },
    {
      "inputs": [
        {
          "internalType": "uint256",
          "name": "_participantId",
          "type": "uint256"
        }
      ],
      "name": "userName",
      "outputs": [
        {
          "internalType": "string",
          "name": "",
          "type": "string"
        }
      ],
      "stateMutability": "view",
      "type": "function"
    },
    {
      "inputs": [],
      "name": "vaccineStatus",
      "outputs": [
        {
          "internalType": "enum VaccineTracker.Status",
          "name": "",
          "type": "uint8"
        }
      ],
      "stateMutability": "view",
      "type": "function"
    },
    {
      "inputs": [],
      "name": "vaccine_id",
      "outputs": [
        {
          "internalType": "uint256",
          "name": "",
          "type": "uint256"
        }
      ],
      "stateMutability": "view",
      "type": "function"
    },
    {
      "inputs": [
        {
          "internalType": "uint256",
          "name": "",
          "type": "uint256"
        }
      ],
      "name": "vaccines",
      "outputs": [
        {
          "internalType": "string",
          "name": "vaccineName",
          "type": "string"
        },
        {
          "internalType": "string",
          "name": "serialNumber",
          "type": "string"
        },
        {
          "internalType": "uint256",
          "name": "cost",
          "type": "uint256"
        },
        {
          "internalType": "uint256",
          "name": "mfgTimeStamp",
          "type": "uint256"
        }
      ],
      "stateMutability": "view",
      "type": "function"
    },
    {
      "inputs": [
        {
          "internalType": "uint256",
          "name": "_participantId",
          "type": "uint256"
        }
      ],
      "name": "viewParticipant",
      "outputs": [
        {
          "components": [
            {
              "internalType": "string",
              "name": "userName",
              "type": "string"
            },
            {
              "internalType": "address",
              "name": "participantAddress",
              "type": "address"
            },
            {
              "internalType": "string",
              "name": "participantType",
              "type": "string"
            }
          ],
          "internalType": "struct VaccineTracker.partitcipant",
          "name": "",
          "type": "tuple"
        }
      ],
      "stateMutability": "view",
      "type": "function"
    },
    {
      "inputs": [
        {
          "internalType": "uint256",
          "name": "_vaccine_id",
          "type": "uint256"
        }
      ],
      "name": "viewVaccine",
      "outputs": [
        {
          "components": [
            {
              "internalType": "string",
              "name": "vaccineName",
              "type": "string"
            },
            {
              "internalType": "string",
              "name": "serialNumber",
              "type": "string"
            },
            {
              "internalType": "uint256",
              "name": "cost",
              "type": "uint256"
            },
            {
              "internalType": "uint256",
              "name": "mfgTimeStamp",
              "type": "uint256"
            }
          ],
          "internalType": "struct VaccineTracker.vaccine",
          "name": "",
          "type": "tuple"
        }
      ],
      "stateMutability": "view",
      "type": "function"
    }
  ],
  "bytecode": "0x60806040526000805560006001556000600660016101000a81548160ff021916908360048111156100335761003261008b565b5b021790555034801561004457600080fd5b5033600260006101000a81548173ffffffffffffffffffffffffffffffffffffffff021916908373ffffffffffffffffffffffffffffffffffffffff1602179055506100ba565b7f4e487b7100000000000000000000000000000000000000000000000000000000600052602160045260246000fd5b611d40806100c96000396000f3fe608060405234801561001057600080fd5b50600436106101005760003560e01c806349d37186116100975780638da5cb5b116100665780638da5cb5b146102f2578063b0cf057f14610310578063f11c0e9a14610340578063fc2da9101461035f57610100565b806349d37186146102645780634cfee77d146102825780635c7e6330146102b65780636ee0ab49146102d457610100565b80630b454ae2116100d35780630b454ae21461019f5780631797a856146101cf578063300e88bd146101ff57806335c1d3491461023257610100565b8063029f1d0e14610105578063047a9b471461013557806307a142281461015157806309645e8f14610181575b600080fd5b61011f600480360381019061011a919061144d565b61037d565b60405161012c9190611513565b60405180910390f35b61014f600480360381019061014a919061156e565b610425565b005b61016b6004803603810190610166919061172e565b61085f565b60405161017891906117c8565b60405180910390f35b610189610931565b604051610196919061185a565b60405180910390f35b6101b960048036038101906101b4919061144d565b610944565b6040516101c69190611925565b60405180910390f35b6101e960048036038101906101e4919061144d565b610aeb565b6040516101f691906119c0565b60405180910390f35b6102196004803603810190610214919061144d565b610c50565b60405161022994939291906119e2565b60405180910390f35b61024c6004803603810190610247919061144d565b610d90565b60405161025b93929190611a44565b60405180910390f35b61026c610eea565b604051610279919061185a565b60405180910390f35b61029c6004803603810190610297919061144d565b610f01565b6040516102ad959493929190611a89565b60405180910390f35b6102be6111df565b6040516102cb91906117c8565b60405180910390f35b6102dc6111e5565b6040516102e99190611b47565b60405180910390f35b6102fa6111f8565b6040516103079190611b62565b60405180910390f35b61032a60048036038101906103259190611b7d565b61121e565b60405161033791906117c8565b60405180910390f35b6103486112d0565b604051610356929190611c08565b60405180910390f35b6103676112fb565b60405161037491906117c8565b60405180910390f35b60606004600083815260200190815260200160002060000180546103a090611c60565b80601f01602080910402602001604051908101604052809291908181526020018280546103cc90611c60565b80156104195780601f106103ee57610100808354040283529160200191610419565b820191906000526020600020905b8154815290600101906020018083116103fc57829003601f168201915b50505050509050919050565b60008160ff16141561048c576000600660006101000a81548160ff02191690836005811115610457576104566117e3565b5b02179055506000600660016101000a81548160ff02191690836004811115610482576104816117e3565b5b02179055506107d0565b60018160ff16141561053357600060058111156104ac576104ab6117e3565b5b600660009054906101000a900460ff1660058111156104ce576104cd6117e3565b5b146104d857600080fd5b6001600660006101000a81548160ff021916908360058111156104fe576104fd6117e3565b5b02179055506001600660016101000a81548160ff02191690836004811115610529576105286117e3565b5b02179055506107cf565b60028160ff1614156105da5760016005811115610553576105526117e3565b5b600660009054906101000a900460ff166005811115610575576105746117e3565b5b1461057f57600080fd5b6002600660006101000a81548160ff021916908360058111156105a5576105a46117e3565b5b02179055506002600660016101000a81548160ff021916908360048111156105d0576105cf6117e3565b5b02179055506107ce565b60038160ff16141561068157600260058111156105fa576105f96117e3565b5b600660009054906101000a900460ff16600581111561061c5761061b6117e3565b5b1461062657600080fd5b6003600660006101000a81548160ff0219169083600581111561064c5761064b6117e3565b5b02179055506003600660016101000a81548160ff02191690836004811115610677576106766117e3565b5b02179055506107cd565b60048160ff16141561072857600360058111156106a1576106a06117e3565b5b600660009054906101000a900460ff1660058111156106c3576106c26117e3565b5b146106cd57600080fd5b6004600660006101000a81548160ff021916908360058111156106f3576106f26117e3565b5b02179055506004600660016101000a81548160ff0219169083600481111561071e5761071d6117e3565b5b02179055506107cc565b60058160ff1614156107cb5760046005811115610748576107476117e3565b5b600660009054906101000a900460ff16600581111561076a576107696117e3565b5b1461077457600080fd5b6005600660006101000a81548160ff0219169083600581111561079a576107996117e3565b5b02179055506004600660016101000a81548160ff021916908360048111156107c5576107c46117e3565b5b02179055505b5b5b5b5b5b7f9e2d9034809e9138ba9b5673a180e2259bda033b31fc890bab83179ca8e481ce600660009054906101000a900460ff1660405161080e919061185a565b60405180910390a17ff9a645f7a7adfa001f8ad4be24a63628d607e2f163db964950df03d4cb813370600660019054906101000a900460ff166040516108549190611b47565b60405180910390a150565b6000806001600081548092919061087590611cc1565b919050559050846004600083815260200190815260200160002060000190805190602001906108a5929190611301565b50836004600083815260200190815260200160002060010160006101000a81548173ffffffffffffffffffffffffffffffffffffffff021916908373ffffffffffffffffffffffffffffffffffffffff16021790555082600460008381526020019081526020016000206002019080519060200190610925929190611301565b50809150509392505050565b600660009054906101000a900460ff1681565b61094c611387565b6004600083815260200190815260200160002060405180606001604052908160008201805461097a90611c60565b80601f01602080910402602001604051908101604052809291908181526020018280546109a690611c60565b80156109f35780601f106109c8576101008083540402835291602001916109f3565b820191906000526020600020905b8154815290600101906020018083116109d657829003601f168201915b505050505081526020016001820160009054906101000a900473ffffffffffffffffffffffffffffffffffffffff1673ffffffffffffffffffffffffffffffffffffffff1673ffffffffffffffffffffffffffffffffffffffff168152602001600282018054610a6290611c60565b80601f0160208091040260200160405190810160405280929190818152602001828054610a8e90611c60565b8015610adb5780601f10610ab057610100808354040283529160200191610adb565b820191906000526020600020905b815481529060010190602001808311610abe57829003601f168201915b5050505050815250509050919050565b610af36113be565b60036000838152602001908152602001600020604051806080016040529081600082018054610b2190611c60565b80601f0160208091040260200160405190810160405280929190818152602001828054610b4d90611c60565b8015610b9a5780601f10610b6f57610100808354040283529160200191610b9a565b820191906000526020600020905b815481529060010190602001808311610b7d57829003601f168201915b50505050508152602001600182018054610bb390611c60565b80601f0160208091040260200160405190810160405280929190818152602001828054610bdf90611c60565b8015610c2c5780601f10610c0157610100808354040283529160200191610c2c565b820191906000526020600020905b815481529060010190602001808311610c0f57829003601f168201915b50505050508152602001600282015481526020016003820154815250509050919050565b6003602052806000526040600020600091509050806000018054610c7390611c60565b80601f0160208091040260200160405190810160405280929190818152602001828054610c9f90611c60565b8015610cec5780601f10610cc157610100808354040283529160200191610cec565b820191906000526020600020905b815481529060010190602001808311610ccf57829003601f168201915b505050505090806001018054610d0190611c60565b80601f0160208091040260200160405190810160405280929190818152602001828054610d2d90611c60565b8015610d7a5780601f10610d4f57610100808354040283529160200191610d7a565b820191906000526020600020905b815481529060010190602001808311610d5d57829003601f168201915b5050505050908060020154908060030154905084565b6004602052806000526040600020600091509050806000018054610db390611c60565b80601f0160208091040260200160405190810160405280929190818152602001828054610ddf90611c60565b8015610e2c5780601f10610e0157610100808354040283529160200191610e2c565b820191906000526020600020905b815481529060010190602001808311610e0f57829003601f168201915b5050505050908060010160009054906101000a900473ffffffffffffffffffffffffffffffffffffffff1690806002018054610e6790611c60565b80601f0160208091040260200160405190810160405280929190818152602001828054610e9390611c60565b8015610ee05780601f10610eb557610100808354040283529160200191610ee0565b820191906000526020600020905b815481529060010190602001808311610ec357829003601f168201915b5050505050905083565b6000600660009054906101000a900460ff16905090565b6005602052806000526040600020600091509050806000018054610f2490611c60565b80601f0160208091040260200160405190810160405280929190818152602001828054610f5090611c60565b8015610f9d5780601f10610f7257610100808354040283529160200191610f9d565b820191906000526020600020905b815481529060010190602001808311610f8057829003601f168201915b505050505090806001018054610fb290611c60565b80601f0160208091040260200160405190810160405280929190818152602001828054610fde90611c60565b801561102b5780601f106110005761010080835404028352916020019161102b565b820191906000526020600020905b81548152906001019060200180831161100e57829003601f168201915b50505050509080600201805461104090611c60565b80601f016020809104026020016040519081016040528092919081815260200182805461106c90611c60565b80156110b95780601f1061108e576101008083540402835291602001916110b9565b820191906000526020600020905b81548152906001019060200180831161109c57829003601f168201915b5050505050908060030180546110ce90611c60565b80601f01602080910402602001604051908101604052809291908181526020018280546110fa90611c60565b80156111475780601f1061111c57610100808354040283529160200191611147565b820191906000526020600020905b81548152906001019060200180831161112a57829003601f168201915b50505050509080600401805461115c90611c60565b80601f016020809104026020016040519081016040528092919081815260200182805461118890611c60565b80156111d55780601f106111aa576101008083540402835291602001916111d5565b820191906000526020600020905b8154815290600101906020018083116111b857829003601f168201915b5050505050905085565b60005481565b600660019054906101000a900460ff1681565b600260009054906101000a900473ffffffffffffffffffffffffffffffffffffffff1681565b60008060008081548092919061123390611cc1565b91905055905084600360008381526020019081526020016000206000019080519060200190611263929190611301565b508360036000838152602001908152602001600020600101908051906020019061128e929190611301565b50826003600083815260200190815260200160002060020181905550426003600083815260200190815260200160002060030181905550809150509392505050565b600080600660009054906101000a900460ff16600660019054906101000a900460ff16915091509091565b60015481565b82805461130d90611c60565b90600052602060002090601f01602090048101928261132f5760008555611376565b82601f1061134857805160ff1916838001178555611376565b82800160010185558215611376579182015b8281111561137557825182559160200191906001019061135a565b5b50905061138391906113e6565b5090565b604051806060016040528060608152602001600073ffffffffffffffffffffffffffffffffffffffff168152602001606081525090565b6040518060800160405280606081526020016060815260200160008152602001600081525090565b5b808211156113ff5760008160009055506001016113e7565b5090565b6000604051905090565b600080fd5b600080fd5b6000819050919050565b61142a81611417565b811461143557600080fd5b50565b60008135905061144781611421565b92915050565b6000602082840312156114635761146261140d565b5b600061147184828501611438565b91505092915050565b600081519050919050565b600082825260208201905092915050565b60005b838110156114b4578082015181840152602081019050611499565b838111156114c3576000848401525b50505050565b6000601f19601f8301169050919050565b60006114e58261147a565b6114ef8185611485565b93506114ff818560208601611496565b611508816114c9565b840191505092915050565b6000602082019050818103600083015261152d81846114da565b905092915050565b600060ff82169050919050565b61154b81611535565b811461155657600080fd5b50565b60008135905061156881611542565b92915050565b6000602082840312156115845761158361140d565b5b600061159284828501611559565b91505092915050565b600080fd5b600080fd5b7f4e487b7100000000000000000000000000000000000000000000000000000000600052604160045260246000fd5b6115dd826114c9565b810181811067ffffffffffffffff821117156115fc576115fb6115a5565b5b80604052505050565b600061160f611403565b905061161b82826115d4565b919050565b600067ffffffffffffffff82111561163b5761163a6115a5565b5b611644826114c9565b9050602081019050919050565b82818337600083830152505050565b600061167361166e84611620565b611605565b90508281526020810184848401111561168f5761168e6115a0565b5b61169a848285611651565b509392505050565b600082601f8301126116b7576116b661159b565b5b81356116c7848260208601611660565b91505092915050565b600073ffffffffffffffffffffffffffffffffffffffff82169050919050565b60006116fb826116d0565b9050919050565b61170b816116f0565b811461171657600080fd5b50565b60008135905061172881611702565b92915050565b6000806000606084860312156117475761174661140d565b5b600084013567ffffffffffffffff81111561176557611764611412565b5b611771868287016116a2565b935050602061178286828701611719565b925050604084013567ffffffffffffffff8111156117a3576117a2611412565b5b6117af868287016116a2565b9150509250925092565b6117c281611417565b82525050565b60006020820190506117dd60008301846117b9565b92915050565b7f4e487b7100000000000000000000000000000000000000000000000000000000600052602160045260246000fd5b60068110611823576118226117e3565b5b50565b600081905061183482611812565b919050565b600061184482611826565b9050919050565b61185481611839565b82525050565b600060208201905061186f600083018461184b565b92915050565b600082825260208201905092915050565b60006118918261147a565b61189b8185611875565b93506118ab818560208601611496565b6118b4816114c9565b840191505092915050565b6118c8816116f0565b82525050565b600060608301600083015184820360008601526118eb8282611886565b915050602083015161190060208601826118bf565b50604083015184820360408601526119188282611886565b9150508091505092915050565b6000602082019050818103600083015261193f81846118ce565b905092915050565b61195081611417565b82525050565b600060808301600083015184820360008601526119738282611886565b9150506020830151848203602086015261198d8282611886565b91505060408301516119a26040860182611947565b5060608301516119b56060860182611947565b508091505092915050565b600060208201905081810360008301526119da8184611956565b905092915050565b600060808201905081810360008301526119fc81876114da565b90508181036020830152611a1081866114da565b9050611a1f60408301856117b9565b611a2c60608301846117b9565b95945050505050565b611a3e816116f0565b82525050565b60006060820190508181036000830152611a5e81866114da565b9050611a6d6020830185611a35565b8181036040830152611a7f81846114da565b9050949350505050565b600060a0820190508181036000830152611aa381886114da565b90508181036020830152611ab781876114da565b90508181036040830152611acb81866114da565b90508181036060830152611adf81856114da565b90508181036080830152611af381846114da565b90509695505050505050565b60058110611b1057611b0f6117e3565b5b50565b6000819050611b2182611aff565b919050565b6000611b3182611b13565b9050919050565b611b4181611b26565b82525050565b6000602082019050611b5c6000830184611b38565b92915050565b6000602082019050611b776000830184611a35565b92915050565b600080600060608486031215611b9657611b9561140d565b5b600084013567ffffffffffffffff811115611bb457611bb3611412565b5b611bc0868287016116a2565b935050602084013567ffffffffffffffff811115611be157611be0611412565b5b611bed868287016116a2565b9250506040611bfe86828701611438565b9150509250925092565b6000604082019050611c1d600083018561184b565b611c2a6020830184611b38565b9392505050565b7f4e487b7100000000000000000000000000000000000000000000000000000000600052602260045260246000fd5b60006002820490506001821680611c7857607f821691505b60208210811415611c8c57611c8b611c31565b5b50919050565b7f4e487b7100000000000000000000000000000000000000000000000000000000600052601160045260246000fd5b6000611ccc82611417565b91507fffffffffffffffffffffffffffffffffffffffffffffffffffffffffffffffff821415611cff57611cfe611c92565b5b60018201905091905056fea2646970667358221220537b6870c3e007da87fd7172224e538f64ee16d8014d07a71cf2a675b1f0934464736f6c63430008090033",
  "linkReferences": {},
  "deployedLinkReferences": {}
}